:020000040000FA
:0400000007EF00F016
:0A0008007C8278ED0CF0E7EF13F0B6
:0510000000256900005D
:101006002D50800B366E2D502D24386E2CAE0EEFE3
:1010160008F010EF08F011EF08F038803850D8B417
:1010260017EF08F019EF08F02EEF08F03828D8A4CB
:101036001FEF08F021EF08F029EF08F0000E2A6EE6
:10104600000E2B6E000E2C6E000E2D6E2C8E000EDA
:101056002D6E36EF08F0000E2A6E000E2B6E000E77
:101066002C6E000E2D6E3150800B376E36503718B1
:10107600D8B440EF08F042EF08F043EF08F0368CA2
:1010860031503124376E30AE4BEF08F04DEF08F09B
:101096004EEF08F037803750D8B454EF08F056EFCB
:1010A60008F06BEF08F03728D8A45CEF08F05EEF85
:1010B60008F066EF08F0000E2E6E000E2F6E000E82
:1010C600306E000E316E308E000E316E73EF08F00A
:1010D600000E2E6E000E2F6E000E306E000E316E5C
:1010E6003850375CD8B07AEF08F07CEF08F0A3EF01
:1010F60008F036AC81EF08F083EF08F085EF08F0D2
:10110600800E361A38C039F037C038F039C037F09B
:101116002AC039F02EC02AF039C02EF02BC039F083
:101126002FC02BF039C02FF02CC039F030C02CF076
:1011360039C030F02DC039F031C02DF039C031F052
:10114600000E396E385037C032F0336A325E000E08
:10115600335A33BEB8EF08F0335009E11A0E325C49
:10116600D8A0B8EF08F0BAEF08F0F1EF08F02A506F
:101176002B102C102D10D8A4C3EF08F0C6EF08F0E2
:10118600010EC7EF08F0000E396E000E2A6E000E33
:101196002B6E000E2C6E000E2D6E37C038F0FAEF57
:1011A60008F039A0D9EF08F0DBEF08F0E1EF08F01E
:1011B600D89039300109396EE3EF08F0D89039320A
:1011C6002AA0E8EF08F0EAEF08F0EBEF08F0398E16
:1011D6002D342D322C322B322A32382A3750385CB5
:1011E600D8A0F8EF08F0FAEF08F0D4EF08F036BC14
:1011F600FFEF08F001EF09F041EF09F03850D8A4ED
:1012060007EF09F009EF09F013EF09F0000E2A6E57
:10121600000E2B6E000E2C6E000E2D6E62EF0AF085
:101226002E502A262F502B2230502C2231502D2280
:101236002DA020EF09F022EF09F0CEEF09F039A03A
:1012460027EF09F029EF09F02FEF09F0D890393090
:101256000109396E31EF09F0D89039322AA036EFFC
:1012660009F038EF09F039EF09F0398E2D342D32B7
:101276002C322B322A32382ACEEF09F02E502A5C35
:101286002F502B5830502C582D50800A326E31502A
:10129600800A3258D8B052EF09F054EF09F07FEFC8
:1012A60009F02A502E5C326E2B502F58336E2C507C
:1012B6003058346E2D503158356EFF0E32242A6E5A
:1012C600FF0E33202B6EFF0E34202C6EFF0E3520C2
:1012D6002D6E800E361A396C3950D8A475EF09F088
:1012E60077EF09F087EF09F0010E2A26000E2B2270
:1012F6002C222D2287EF09F02E502A5E2F502B5AD2
:1013060030502C5A31502D5A2A502B102C102D109B
:10131600D8A490EF09F092EF09F0C7EF09F0395021
:10132600D8A498EF09F09AEF09F0C7EF09F0000E7C
:101336002A6E000E2B6E000E2C6E000E2D6E62EFC6
:101346000AF0D8902A362B362C362D3639AEAEEF2B
:1013560009F0B0EF09F0B1EF09F02A8039A0B6EF35
:1013660009F0B8EF09F0BCEF09F0D8803936BEEFC6
:1013760009F0D89039363850D8B4C4EF09F0C6EF22
:1013860009F0C7EF09F038062CAECCEF09F0CEEF26
:1013960009F0A4EF09F0000E376E39AED5EF09F06B
:1013A600D7EF09F0EFEF09F039C032F07F0E3216B1
:1013B600D8B4E0EF09F0E2EF09F0E6EF09F0010E2C
:1013C600376EEFEF09F02AA0EBEF09F0EDEF09F029
:1013D600EFEF09F0E2EF09F03750D8B4F5EF09F076
:1013E600F7EF09F022EF0AF0010E2A26000E2B2253
:1013F6002C222D222DA002EF0AF004EF0AF022EF94
:101406000AF02AC032F02BC033F02CC034F02DC0C5
:1014160035F03534353234323332323232C02AF096
:1014260033C02BF034C02CF035C02DF03828D8B49A
:101436001FEF0AF021EF0AF022EF0AF0382A3828C7
:10144600D8B428EF0AF02AEF0AF032EF0AF0385043
:10145600D8A430EF0AF032EF0AF044EF0AF0000E9B
:101466002A6E000E2B6E000E2C6E000E2D6E38505E
:10147600D8A440EF0AF042EF0AF044EF0AF0000E5B
:10148600366E38A049EF0AF04BEF0AF04EEF0AF03D
:101496002C8E4FEF0AF02C9ED89038302D6E36AE3B
:1014A60057EF0AF059EF0AF05AEF0AF02D8E2AC0CC
:1014B6002AF02BC02BF02CC02CF02DC02DF01200E2
:1014C6001450800B1D6E14501424236E13AE6EEF51
:1014D6000AF070EF0AF071EF0AF023802350D8B4B7
:1014E60077EF0AF079EF0AF08CEF0AF02328D8A4F8
:1014F6007FEF0AF081EF0AF089EF0AF0000E116E15
:10150600000E126E000E136E000E146E138E94EF04
:101516000AF0000E116E000E126E000E136E000E13
:10152600146E1850800B1D1A185018241E6E17AE14
:101536009FEF0AF0A1EF0AF0A2EF0AF01E801E50FC
:10154600D8B4A8EF0AF0AAEF0AF0BDEF0AF01E28F9
:10155600D8A4B0EF0AF0B2EF0AF0BAEF0AF0000E24
:10156600156E000E166E000E176E000E186E178E94
:10157600C5EF0AF0000E156E000E166E000E176E01
:10158600000E186E1E50D8B4CBEF0AF0CDEF0AF05D
:10159600D5EF0AF02350D8A4D3EF0AF0D5EF0AF01E
:1015A600DFEF0AF0000E116E000E126E000E136EC3
:1015B600000E146E77EF0CF017501102F3CF28F0DF
:1015C600F4CF29F028501F6E206A216A226A29501A
:1015D600246E256A266A276A16501202F3CF28F06F
:1015E600F4CF29F028501F26000E20222122222285
:1015F60029502426000E25222622272215501302C2
:10160600F3CF28F0F4CF29F028501F26000E202211
:101616002122222229502426000E25222622272294
:1016260021C022F020C021F01FC020F01F6A1550F3
:101636001202F3CF28F0F4CF29F028501F262950A4
:101646002022000E2122000E222216501102F3CF74
:1016560028F0F4CF29F028501F2629502022000E0A
:101666002122000E222221C022F020C021F01FC01C
:1016760020F01F6A15501102F3CF28F0F4CF29F09D
:1016860028501F2629502022000E2122000E222239
:1016960017501202F3CF28F0F4CF29F02850242651
:1016A60029502522000E2622000E2722165013024C
:1016B600F3CF28F0F4CF29F02850242629502522EC
:1016C600000E2622000E272217501302F3CF28F011
:1016D600F4CF29F02850196E29501A6E1B6A1C6A1D
:1016E6001BC01CF01AC01BF019C01AF0196A195059
:1016F60024261A5025221B5026221C5027221FC0A2
:1017060019F020C01AF021C01BF022C01CF0190EDF
:1017160092EF0BF0D8901C321B321A321932E82E97
:101726008DEF0BF0195024261A5025221B50262225
:101736001C50272221C022F020C021F01FC020F01B
:101746001F6A1E5023C019F01A6A1926000E1A22A3
:10175600820E1924286EFF0E1A20296EC8EF0BF090
:10176600D890243625362636273622AEBDEF0BF026
:10177600BFEF0BF0C0EF0BF02480D8901F36203659
:10178600213622362806D8A0290626AECDEF0BF044
:10179600CFEF0BF0B3EF0BF0000E1E6E22AED6EFBE
:1017A6000BF0D8EF0BF0FCEF0BF0FF0E1F14196EC9
:1017B600FF0E20141A6EFF0E21141B6E7F0E2214CC
:1017C6001C6E19501A101B101C10D8B4EDEF0BF03C
:1017D600EFEF0BF0F3EF0BF0010E1E6EFCEF0BF0CC
:1017E60024A0F8EF0BF0FAEF0BF0FCEF0BF0EFEFA5
:1017F6000BF01E50D8B402EF0CF004EF0CF028EFFB
:101806000CF0010E2426000E25222622272227A0D0
:101816000FEF0CF011EF0CF028EF0CF024C019F0CC
:1018260025C01AF026C01BF027C01CF01C341C3241
:101836001B321A32193219C024F01AC025F01BC007
:1018460026F01CC027F0284A292A29BE33EF0CF0BF
:10185600295008E12828D8A033EF0CF035EF0CF01A
:101866003FEF0CF0000E246E000E256E800E266EE5
:101876007F0E276E6DEF0CF029BE4CEF0CF0295051
:1018860006E12804D8B04AEF0CF04CEF0CF058EF04
:101896000CF0000E246E000E256E000E266E000E55
:1018A600276E000E1D6E6DEF0CF028C023F0FF0EA4
:1018B6002416FF0E25167F0E2616000E271623A0C9
:1018C60067EF0CF069EF0CF06AEF0CF0268ED890FB
:1018D6002330276E1D50271224C011F025C012F0A8
:1018E60026C013F027C014F012000600F2A87EEFFF
:1018F6000CF080EF0CF089EF0CF0F2A285EF0CF003
:1019060087EF0CF089EF0CF025EC15F0F0A68EEFC2
:101916000CF090EF0CF099EF0CF0F0A095EF0CF0B6
:1019260097EF0CF099EF0CF023EC15F0F0A89EEF72
:101936000CF0A0EF0CF0A9EF0CF0F0A2A5EF0CF064
:10194600A7EF0CF0A9EF0CF021EC15F0F2A6AEEF24
:101956000CF0B0EF0CF0CBEF0CF0F2A0B5EF0CF002
:10196600B7EF0CF0CBEF0CF081A8BCEF0CF0BEEF9C
:101976000CF0CBEF0CF07A04D8A4C4EF0CF0C6EF51
:101986000CF0CBEF0CF0000E7A6E010EF8EC14F0B2
:10199600F2A6D0EF0CF0D2EF0CF0EDEF0CF0F2A0C7
:1019A600D7EF0CF0D9EF0CF0EDEF0CF081B8DEEFCD
:1019B6000CF0E0EF0CF0EDEF0CF07A50D8A4E6EF67
:1019C6000CF0E8EF0CF0EDEF0CF0010E7A6E000E65
:1019D600F8EC14F0F2A6F2EF0CF0F4EF0CF00FEFC7
:1019E6000DF0F2A0F9EF0CF0FBEF0CF00FEF0DF09D
:1019F60081AA00EF0DF002EF0DF00FEF0DF0790464
:101A0600D8A408EF0DF00AEF0DF00FEF0DF0000E61
:101A1600796E010EEBEC14F0F2A614EF0DF016EF52
:101A26000DF031EF0DF0F2A01BEF0DF01DEF0DF0F4
:101A360031EF0DF081BA22EF0DF024EF0DF031EF0A
:101A46000DF07950D8A42AEF0DF02CEF0DF031EF00
:101A56000DF0010E796E000EEBEC14F0F2A636EFE7
:101A66000DF038EF0DF053EF0DF0F2A03DEF0DF055
:101A76003FEF0DF053EF0DF081AC44EF0DF046EF64
:101A86000DF053EF0DF07804D8A44CEF0DF04EEFA7
:101A96000DF053EF0DF0000E786E010EDEEC14F033
:101AA600F2A658EF0DF05AEF0DF075EF0DF0F2A01B
:101AB6005FEF0DF061EF0DF075EF0DF081BC66EF95
:101AC6000DF068EF0DF075EF0DF07850D8A46EEFBD
:101AD6000DF070EF0DF075EF0DF0010E786E000E43
:101AE600DEEC14F0F2A67AEF0DF07CEF0DF097EF36
:101AF6000DF0F2A081EF0DF083EF0DF097EF0DF0F2
:101B060081AE88EF0DF08AEF0DF097EF0DF07704B8
:101B1600D8A490EF0DF092EF0DF097EF0DF0000EB8
:101B2600776E010ED1EC14F0F2A69CEF0DF09EEF4D
:101B36000DF0B9EF0DF0F2A0A3EF0DF0A5EF0DF04B
:101B4600B9EF0DF081BEAAEF0DF0ACEF0DF0B9EFD5
:101B56000DF07750D8A4B2EF0DF0B4EF0DF0B9EF59
:101B66000DF0010E776E000ED1EC14F09DACBEEFB9
:101B76000DF0C0EF0DF0C9EF0DF09EACC5EF0DF006
:101B8600C7EF0DF0C9EF0DF02FEC15F0F2AACEEF6E
:101B96000DF0D0EF0DF0D9EF0DF0F2A4D5EF0DF06A
:101BA600D7EF0DF0D9EF0DF011EC15F09DA0DEEF9B
:101BB6000DF0E0EF0DF0E9EF0DF09EA0E5EF0DF072
:101BC600E7EF0DF0E9EF0DF00BEC15F09DA2EEEF4F
:101BD6000DF0F0EF0DF0F9EF0DF09EA2F5EF0DF020
:101BE600F7EF0DF0F9EF0DF017EC15F0A0A2FEEFF0
:101BF6000DF000EF0EF009EF0EF0A1A205EF0EF0CA
:101C060007EF0EF009EF0EF005EC15F09DA40EEFB0
:101C16000EF010EF0EF019EF0EF09EA415EF0EF079
:101C260017EF0EF019EF0EF02DEC15F09DA81EEF34
:101C36000EF020EF0EF029EF0EF09EA825EF0EF025
:101C460027EF0EF029EF0EF02BEC15F09DAA2EEFE4
:101C56000EF030EF0EF039EF0EF09EAA35EF0EF0D3
:101C660037EF0EF039EF0EF0C3EC14F09DA63EEF01
:101C76000EF040EF0EF049EF0EF09EA645EF0EF087
:101C860047EF0EF049EF0EF027EC15F0A0A64EEF49
:101C96000EF050EF0EF059EF0EF0A1A655EF0EF034
:101CA60057EF0EF059EF0EF029EC15F07C9211006B
:101CB6001450800B216E14501424286E13AE66EF58
:101CC6000EF068EF0EF069EF0EF028802850D8B4B9
:101CD6006FEF0EF071EF0EF086EF0EF02828D8A405
:101CE60077EF0EF079EF0EF081EF0EF0000E116E29
:101CF600000E126E000E136E000E146E138E000E82
:101D0600146E8EEF0EF0000E116E000E126E000EA7
:101D1600136E000E146E1850800B211A18501824DA
:101D2600296E17AE99EF0EF09BEF0EF09CEF0EF0BA
:101D360029802950D8B4A2EF0EF0A4EF0EF0B9EF27
:101D46000EF02928D8A4AAEF0EF0ACEF0EF0B4EFEF
:101D56000EF0000E156E000E166E000E176E000EBB
:101D6600186E178E000E186EC1EF0EF0000E156E6F
:101D7600000E166E000E176E000E186E1550161019
:101D860017101810D8A4CAEF0EF0CCEF0EF0E4EF3F
:101D96000EF0000E116E000E126E000E136E000E87
:101DA600146E800E13127F0E14122150141211C0DD
:101DB60011F012C012F013C013F014C014F027EF84
:101DC60010F02850D8A4EAEF0EF0ECEF0EF0F6EF84
:101DD6000EF0000E116E000E126E000E136E000E47
:101DE600146E27EF10F0295028C019F01A6A195EF0
:101DF600000E1A5A7F0E1924226E000E1A20236E28
:101E060011C01DF012C01EF013C01FF014C020F048
:101E1600000E116E000E126E000E136E000E146E82
:101E2600000E246E000E256E000E266E000E276E26
:101E3600000E296E57EF0FF02950D8B425EF0FF09A
:101E460027EF0FF03EEF0FF0D8901D361E361F36E7
:101E56002036D890113612361336143627AE36EFA2
:101E66000FF038EF0FF039EF0FF01180D8902436CD
:101E760025362636273615501D5C16501E58175027
:101E86001F5818502058D8A04BEF0FF04DEF0FF009
:101E960056EF0FF0278C15501D5E16501E5A175020
:101EA6001F5A1850205A292A190E29645DEF0FF07F
:101EB6005FEF0FF01FEF0FF01D501E101F102010C8
:101EC600D8B468EF0FF06AEF0FF082EF0FF02480BE
:101ED60082EF0FF0D890113612361336143627AE2D
:101EE60077EF0FF079EF0FF07AEF0FF01180D890BF
:101EF60024362536263627362206D8A0230613AEE4
:101F060087EF0FF089EF0FF06DEF0FF0000E296EDF
:101F160027AE90EF0FF092EF0FF0B6EF0FF0FF0E37
:101F26002414196EFF0E25141A6EFF0E26141B6E4E
:101F36007F0E27141C6E19501A101B101C10D8B4D3
:101F4600A7EF0FF0A9EF0FF0ADEF0FF0010E296E1E
:101F5600B6EF0FF011A0B2EF0FF0B4EF0FF0B6EF3F
:101F66000FF0A9EF0FF02950D8B4BCEF0FF0BEEF79
:101F76000FF0E2EF0FF0010E1126000E12221322CF
:101F8600142214A0C9EF0FF0CBEF0FF0E2EF0FF021
:101F960011C019F012C01AF013C01BF014C01CF0C7
:101FA6001C341C321B321A32193219C011F01AC0F5
:101FB60012F01BC013F01CC014F0224A232A23BEC1
:101FC600EDEF0FF0235008E12228D8A0EDEF0FF037
:101FD600EFEF0FF0FAEF0FF0000E236E2268000EFF
:101FE600116E000E126E000E136E000E146E23BEDE
:101FF60007EF10F0235006E12204D8B005EF10F0E9
:1020060007EF10F015EF10F0000E236E000E226E93
:10201600000E116E000E126E000E136E000E146E80
:10202600000E216E22C028F028A01CEF10F01EEF33
:1020360010F021EF10F0138E22EF10F0139ED890BF
:102046002830146ED8EF0EF012000B6E0B50D8B479
:102056002FEF10F031EF10F053EF10F006BE38EF0F
:1020660010F036EF10F053EF10F003C007F004C085
:1020760008F005C009F006C00AF0071E081E091E72
:102086000A1E072A000E082209220A2207C00DF09E
:1020960008C00EF009C00FF00AC010F05BEF10F098
:1020A60003C00DF004C00EF005C00FF006C010F01E
:1020B6000350041005100610D8A464EF10F066EF64
:1020C60010F070EF10F0000E036E000E046E000E9E
:1020D600056E000E066E01EF11F0960E0C6E7AEF8D
:1020E60010F00C2AD89010320F320E320D32000E3C
:1020F6000D14076E000E0E14086E000E0F14096EF6
:10210600FE0E10140A6E0750081009100A10D8A403
:102116008FEF10F091EF10F074EF10F09FEF10F0CA
:102126000C2A010E0D26000E0E220F221022D89028
:1021360010320F320E320D32000E0D14076E000EE5
:102146000E14086E000E0F14096EFF0E10140A6EA0
:102156000750081009100A10D8A4B4EF10F0B6EF13
:1021660010F093EF10F0BEEF10F00C06D8900D367D
:102176000E360F3610360FBEC3EF10F0C5EF10F057
:10218600CDEF10F0020E0C60CBEF10F0CDEF10F09B
:10219600B8EF10F00CB0D2EF10F0D4EF10F0D5EF8E
:1021A60010F00F9ED8900C320CC007F0086A096A2E
:1021B6000A6A07C00AF0096A086A076A07500D1218
:1021C60008500E1209500F120A5010120B50D8B4B4
:1021D600EFEF10F0F1EF10F0F9EF10F006BEF8EFA8
:1021E60010F0F6EF10F0F9EF10F0108E0DC003F0BE
:1021F6000EC004F00FC005F010C006F012004850E3
:102206004910D8A409EF11F00BEF11F00DEF11F002
:10221600A4EF11F0C69A20EE06F04850D926495090
:10222600DA22DFA019EF11F01BEF11F023EF11F006
:1022360048C044F049C045F0F1EC12F05FEF11F0F0
:1022460020EE06F04850D9264950DA22DFB02EEFAC
:1022560011F030EF11F05FEF11F020EE06F048506C
:10226600D9264950DA22DFA63BEF11F03DEF11F0F7
:1022760040EF11F0C58E4EEF11F020EE06F04850FB
:10228600D9264950DA22DFB64BEF11F04DEF11F0A7
:102296004EEF11F0C59EC69EC69CC68820EE05F080
:1022A6004850D9264950DA22DF50C86E48C003F09C
:1022B60049C004F099EC14F01BEC15F020EE06F082
:1022C6004850D9264950DA22DFA26CEF11F06EEFA2
:1022D60011F071EF11F0C78E7FEF11F020EE06F0CE
:1022E6004850D9264950DA22DFB27CEF11F07EEF52
:1022F60011F07FEF11F0C79E20EE06F04850D92668
:102306004950DA22DFA48AEF11F08CEF11F08FEF3B
:1023160011F0C78C9DEF11F020EE06F04850D9263B
:102326004950DA22DFB49AEF11F09CEF11F09DEFDD
:1023360011F0C79C48C003F049C004F018EC14F033
:10234600C68A12003C343D34436E4350D8A4AEEFE7
:1023560011F0B0EF11F0BAEF11F0000E3A6E000E68
:102366003B6E000E3C6E000E3D6E27EF12F03AC03B
:102376003EF03BC03FF03CC040F03DC041F0200E77
:10238600CAEF11F0D890413240323F323E32E82E49
:10239600C5EF11F03E50426E3C8EFF0E3A16FF0E10
:1023A6003B16FF0E3C16000E3D16960E435E43BED0
:1023B600E1EF11F0DFEF11F0F7EF11F04350800A73
:1023C600970FD8B0E9EF11F0EBEF11F0EDEF11F048
:1023D600B0EF11F0D8903D323C323B323A32433EB8
:1023E600EDEF11F00FEF12F01F0E4364FDEF11F049
:1023F600FFEF11F007EF12F0B0EF11F0D8903A3678
:102406003B363C363D3643064350D8A40DEF12F01A
:102416000FEF12F001EF12F04250D8B415EF12F0A0
:1024260017EF12F01FEF12F03D1E3C1E3B1E3A6CDA
:10243600000E3B223C223D223AC03AF03BC03BF024
:102446003CC03CF03DC03DF0120044504510D8A4BD
:102456002FEF12F031EF12F033EF12F093EF12F08C
:102466004850040DF350080F4D6E000E2E6E000EF0
:102476002F6E4D0E306E430E316E850E156EEB0EC1
:10248600166E910E176E3F0E186E4950036E046A53
:10249600056A066A010E28EC10F003C011F004C0AC
:1024A60012F005C013F006C014F063EC0AF011C078
:1024B6002AF012C02BF013C02CF014C02DF003EC40
:1024C60008F02AC03AF02BC03BF02CC03CF02DC0DF
:1024D6003DF0A5EC11F03AC04BF03BC04CF044C0C7
:1024E60009F045C00AF046C0D9FF47C0DAFFDF5001
:1024F6000B6E4DC00CF04BC00DF0B4EC13F04D2A32
:1025060044C009F045C00AF046C0D9FF47C0DAFF0B
:10251600DF500B6E4DC00CF04C500D6EB4EC13F04A
:1025260012004B504C10D8B49BEF12F09DEF12F0F6
:10253600A6EF12F04D504E10D8A4A4EF12F0A6EF5D
:1025460012F0A8EF12F0F0EF12F04BC048F04CC0BA
:1025560049F002EC11F04BC009F04CC00AF04DC036
:10256600D9FF4EC0DAFFDF500B6EFE0E0C6E20EE6A
:1025760001F04D50D9264E50DA22DF500D6EB4ECE4
:1025860013F04BC009F04CC00AF04DC0D9FF4EC045
:10259600DAFFDF500B6E000E0C6E20EE02F04D508F
:1025A600D9264E50DA22DF500D6EB4EC13F04BC034
:1025B60009F04CC00AF04DC0D9FF4EC0DAFFDF501B
:1025C6000B6E010E0C6E20EE03F04D50D9264E50C8
:1025D600DA22DF500D6EB4EC13F0120044504510B1
:1025E600D8A4F8EF12F0FAEF12F0FCEF12F048EF71
:1025F60013F020EE04F04450D9264550DA22DF507D
:10260600466EC6504618F00B4618C66E000E2E6E65
:10261600000E2F6E800E306EBF0E316E44C0D9FF95
:1026260045C0DAFFDECF03F0DECF04F0DECF05F0E3
:10263600DECF06F0000E28EC10F003C015F004C043
:1026460016F005C017F006C018F0000E116E240E25
:10265600126EF40E136E490E146E5BEC0EF011C082
:102666002AF012C02BF013C02CF014C02DF003EC8E
:1026760008F02AC03AF02BC03BF02CC03CF02DC02D
:102686003DF0A5EC11F03A50C86E1200B2EC14F011
:10269600000E0001EA6F000EE96FAE0E446E000EEA
:1026A600456EBB0E466E000E476EE9C048F06DC023
:1026B60049F028EC12F00B0E516E260E506E5E0E8F
:1026C600E82EFED7502EFCD7512EFAD70F0E6D26C8
:1026D6000001E94BEA2BEABF7AEF13F0EA5109E170
:1026E600100EE95DD8A07AEF13F07CEF13F050EFEF
:1026F60013F07CEF13F007EF00F003500410D8B48A
:1027060087EF13F089EF13F092EF13F006500710DE
:10271600D8A490EF13F092EF13F094EF13F0B3EF09
:1027260013F005C0C9FFC7B09BEF13F09DEF13F080
:1027360096EF13F09E96C5BCA3EF13F0A5EF13F02A
:10274600ADEF13F006C0D9FF07C0DAFF000EDF6E4B
:10275600B3EF13F006C0D9FF07C0DAFF010EDF6E34
:102766001200060E0E6E09C003F00AC004F07DECDE
:1027760014F009C003F00AC004F00BC005F00E0EF9
:10278600066E000E076E80EC13F009C003F00AC057
:1027960004F00CC005F00E0E066E000E076E80ECFF
:1027A60013F009C003F00AC004F00DC005F00E0EC8
:1027B600066E000E076E80EC13F009C003F00AC027
:1027C60004F061EC14F01200820EF66E280EF76E1D
:1027D600000EF86E00EE80F010EE3FF00900F5CF27
:1027E600EEFFE550E150FAE13C0EF66E2A0EF76E6A
:1027F600000EF86E00EE77F010EE05F00900F5CF4A
:10280600EEFFE550E150FAE100EEBFF02A0EEE6A67
:10281600E806FDE100EE52F0250EEE6AE806FDE15F
:102826007C907C92000149EF13F09D96F28EF28C1B
:102836009E969D8620EE09F00350D9260450DA2292
:10284600DECF64F0DDCF65F020EE0BF00350D92625
:102856000450DA22DECFE7F0DDCFE8F0A096F28E64
:10286600F28CA196A08620EE07F00350D9260450DC
:10287600DA22DECF62F0DDCF63F012003738392F6F
:102886003435362A3132332D23303D2B800F810FDC
:10289600820F830F840F890F8A0F8B0F8C0F8D0F7A
:1028A600920F930F940F950F960FA08601000800C4
:0B28B6000300000000000080792104F6
:1028C20003500410D8A468EF14F06AEF14F06CEF10
:1028D20014F07CEF14F0C584C5B472EF14F074EFF9
:1028E20014F06DEF14F09E96C7A87AEF14F07CEF07
:1028F20014F06AEF14F0120003500410D8A484EF0D
:1029020014F086EF14F088EF14F098EF14F0C580FD
:10291200C5B08EEF14F090EF14F089EF14F09E968C
:10292200C7A696EF14F098EF14F086EF14F0120099
:1029320003500410D8A4A0EF14F0A2EF14F0A4EFF7
:1029420014F0B1EF14F020EE04F00350D926045035
:10295200DA22DF50056EC6500518F00B0518C66E58
:102962001200AE0E486E000E496E02EC11F0AE0E71
:102972004B6E000E4C6EBB0E4D6E000E4E6E94EC06
:1029820012F012000001CF51D011D8B4CBEF14F0E5
:10299200CDEF14F0D0EF14F0AE50D0EF14F01200DF
:1029A200016EF2900104D8A4D9EF14F0DBEF14F019
:1029B200DDEF14F0DDEF14F01200016EF29001046D
:1029C200D8A4E6EF14F0E8EF14F0EAEF14F0EAEF1F
:1029D20014F01200016EF2900104D8A4F3EF14F087
:1029E200F5EF14F0F7EF14F0F7EF14F01200016EA8
:1029F200F2900104D8A400EF15F002EF15F004EFF5
:102A020015F004EF15F01200A1925350B36E52C0AC
:102A1200B2FF12009E905550CF6E54C0CEFF1200EE
:102A2200F2945750D76E56C0D6FF12009E926FC0D6
:0F2A3200CCFF1200948694881200010101010666
:102A4200F0921200F0901200F29212009E96120082
:102A5200A19612009D9812009E9412009E9C120054
:020000040020DA
:08000000FFFFFFFFFFFFFFFF00
:020000040030CA
:0E000000FF02091EFF8181FF0FC00FE00F40BD
:00000001FF
